{
  "_format": "hh-sol-artifact-1",
  "contractName": "AFK",
  "sourceName": "src/afk/afk.sol",
  "abi": [
    {
      "inputs": [
        {
          "internalType": "address",
          "name": "_verifier",
          "type": "address"
        }
      ],
      "stateMutability": "nonpayable",
      "type": "constructor"
    },
    {
      "inputs": [
        {
          "internalType": "uint32",
          "name": "source",
          "type": "uint32"
        },
        {
          "internalType": "bytes",
          "name": "proof",
          "type": "bytes"
        }
      ],
      "name": "addClaims",
      "outputs": [],
      "stateMutability": "nonpayable",
      "type": "function"
    },
    {
      "inputs": [
        {
          "internalType": "uint32",
          "name": "issuerId",
          "type": "uint32"
        },
        {
          "internalType": "string",
          "name": "name",
          "type": "string"
        },
        {
          "internalType": "address",
          "name": "verifierAddr",
          "type": "address"
        },
        {
          "internalType": "uint256",
          "name": "claimExpiry",
          "type": "uint256"
        }
      ],
      "name": "addIssuer",
      "outputs": [],
      "stateMutability": "nonpayable",
      "type": "function"
    },
    {
      "inputs": [],
      "name": "verifier",
      "outputs": [
        {
          "internalType": "address",
          "name": "",
          "type": "address"
        }
      ],
      "stateMutability": "view",
      "type": "function"
    },
    {
      "inputs": [
        {
          "internalType": "uint32[]",
          "name": "claimKeys",
          "type": "uint32[]"
        },
        {
          "internalType": "uint256[]",
          "name": "claimValues",
          "type": "uint256[]"
        },
        {
          "internalType": "uint256[]",
          "name": "claimCommitments",
          "type": "uint256[]"
        },
        {
          "internalType": "uint256",
          "name": "nullifier",
          "type": "uint256"
        },
        {
          "internalType": "uint256",
          "name": "scope",
          "type": "uint256"
        },
        {
          "internalType": "uint256",
          "name": "message",
          "type": "uint256"
        },
        {
          "internalType": "uint256[8]",
          "name": "groth16Proof",
          "type": "uint256[8]"
        }
      ],
      "name": "verifyClaims",
      "outputs": [
        {
          "internalType": "bool",
          "name": "",
          "type": "bool"
        }
      ],
      "stateMutability": "view",
      "type": "function"
    }
  ],
  "bytecode": "0x60806040523480156200001157600080fd5b5060405162001ced38038062001ced8339818101604052810190620000379190620000e8565b806000806101000a81548173ffffffffffffffffffffffffffffffffffffffff021916908373ffffffffffffffffffffffffffffffffffffffff160217905550506200011a565b600080fd5b600073ffffffffffffffffffffffffffffffffffffffff82169050919050565b6000620000b08262000083565b9050919050565b620000c281620000a3565b8114620000ce57600080fd5b50565b600081519050620000e281620000b7565b92915050565b6000602082840312156200010157620001006200007e565b5b60006200011184828501620000d1565b91505092915050565b611bc3806200012a6000396000f3fe608060405234801561001057600080fd5b506004361061004c5760003560e01c80632b7ac3f3146100515780638d63ab9a1461006f578063a75ddca01461009f578063d5fa6147146100bb575b600080fd5b6100596100d7565b6040516100669190610a3a565b60405180910390f35b61008960048036038101906100849190610da8565b6100fb565b6040516100969190610eba565b60405180910390f35b6100b960048036038101906100b49190610fb6565b610652565b005b6100d560048036038101906100d09190611094565b610712565b005b60008054906101000a900473ffffffffffffffffffffffffffffffffffffffff1681565b6000600588511115610142576040517f08c379a000000000000000000000000000000000000000000000000000000000815260040161013990611151565b60405180910390fd5b8651885114610186576040517f08c379a000000000000000000000000000000000000000000000000000000000815260040161017d906111e3565b60405180910390fd5b85518851146101ca576040517f08c379a00000000000000000000000000000000000000000000000000000000081526004016101c190611275565b60405180910390fd5b60005b88518110156102585742600260008984815181106101ee576101ed611295565b5b602002602001015181526020019081526020016000205411610245576040517f08c379a000000000000000000000000000000000000000000000000000000000815260040161023c90611336565b60405180910390fd5b808061025090611385565b9150506101cd565b5060008054906101000a900473ffffffffffffffffffffffffffffffffffffffff1673ffffffffffffffffffffffffffffffffffffffff16634483e7216040518060400160405280856000600881106102b4576102b3611295565b5b60200201518152602001856001600881106102d2576102d1611295565b5b6020020151815250604051806040016040528060405180604001604052808860026008811061030457610303611295565b5b602002015181526020018860036008811061032257610321611295565b5b6020020151815250815260200160405180604001604052808860046008811061034e5761034d611295565b5b602002015181526020018860056008811061036c5761036b611295565b5b602002015181525081525060405180604001604052808760066008811061039657610395611295565b5b60200201518152602001876007600881106103b4576103b3611295565b5b60200201518152506040518061024001604052808b81526020018c6000815181106103e2576103e1611295565b5b602002602001015181526020018c60018151811061040357610402611295565b5b602002602001015181526020018c60028151811061042457610423611295565b5b602002602001015181526020018c60038151811061044557610444611295565b5b602002602001015181526020018c60048151811061046657610465611295565b5b602002602001015181526020018e60008151811061048757610486611295565b5b602002602001015163ffffffff1681526020018e6001815181106104ae576104ad611295565b5b602002602001015163ffffffff1681526020018e6002815181106104d5576104d4611295565b5b602002602001015163ffffffff1681526020018e6003815181106104fc576104fb611295565b5b602002602001015163ffffffff1681526020018e60048151811061052357610522611295565b5b602002602001015163ffffffff1681526020018d60008151811061054a57610549611295565b5b602002602001015181526020018d60018151811061056b5761056a611295565b5b602002602001015181526020018d60028151811061058c5761058b611295565b5b602002602001015181526020018d6003815181106105ad576105ac611295565b5b602002602001015181526020018d6004815181106105ce576105cd611295565b5b602002602001015181526020018a8152602001898152506040518563ffffffff1660e01b815260040161060494939291906115fa565b602060405180830381865afa158015610621573d6000803e3d6000fd5b505050506040513d601f19601f82011682018060405250810190610645919061166d565b9050979650505050505050565b60405180606001604052808481526020018373ffffffffffffffffffffffffffffffffffffffff16815260200182815250600160008663ffffffff1663ffffffff16815260200190815260200160002060008201518160000190816106b791906118b1565b5060208201518160010160006101000a81548173ffffffffffffffffffffffffffffffffffffffff021916908373ffffffffffffffffffffffffffffffffffffffff1602179055506040820151816002015590505050505050565b6000600160008563ffffffff1663ffffffff16815260200190815260200160002060405180606001604052908160008201805461074e906116d4565b80601f016020809104026020016040519081016040528092919081815260200182805461077a906116d4565b80156107c75780601f1061079c576101008083540402835291602001916107c7565b820191906000526020600020905b8154815290600101906020018083116107aa57829003601f168201915b505050505081526020016001820160009054906101000a900473ffffffffffffffffffffffffffffffffffffffff1673ffffffffffffffffffffffffffffffffffffffff1673ffffffffffffffffffffffffffffffffffffffff1681526020016002820154815250509050600073ffffffffffffffffffffffffffffffffffffffff16816020015173ffffffffffffffffffffffffffffffffffffffff160361086f57600080fd5b600080826020015173ffffffffffffffffffffffffffffffffffffffff166355c265fe86866040518363ffffffff1660e01b81526004016108b19291906119c1565b6000604051808303816000875af11580156108d0573d6000803e3d6000fd5b505050506040513d6000823e3d601f19601f820116820180604052508101906108f99190611a91565b915091506003600083815260200190815260200160002060009054906101000a900460ff161561095e576040517f08c379a000000000000000000000000000000000000000000000000000000000815260040161095590611b39565b60405180910390fd5b60016003600084815260200190815260200160002060006101000a81548160ff021916908315150217905550600083604001514261099c9190611b59565b905060005b82518110156109ef5781600260008584815181106109c2576109c1611295565b5b602002602001015181526020019081526020016000208190555080806109e790611385565b9150506109a1565b5050505050505050565b600073ffffffffffffffffffffffffffffffffffffffff82169050919050565b6000610a24826109f9565b9050919050565b610a3481610a19565b82525050565b6000602082019050610a4f6000830184610a2b565b92915050565b6000604051905090565b600080fd5b600080fd5b600080fd5b6000601f19601f8301169050919050565b7f4e487b7100000000000000000000000000000000000000000000000000000000600052604160045260246000fd5b610ab782610a6e565b810181811067ffffffffffffffff82111715610ad657610ad5610a7f565b5b80604052505050565b6000610ae9610a55565b9050610af58282610aae565b919050565b600067ffffffffffffffff821115610b1557610b14610a7f565b5b602082029050602081019050919050565b600080fd5b600063ffffffff82169050919050565b610b4481610b2b565b8114610b4f57600080fd5b50565b600081359050610b6181610b3b565b92915050565b6000610b7a610b7584610afa565b610adf565b90508083825260208201905060208402830185811115610b9d57610b9c610b26565b5b835b81811015610bc65780610bb28882610b52565b845260208401935050602081019050610b9f565b5050509392505050565b600082601f830112610be557610be4610a69565b5b8135610bf5848260208601610b67565b91505092915050565b600067ffffffffffffffff821115610c1957610c18610a7f565b5b602082029050602081019050919050565b6000819050919050565b610c3d81610c2a565b8114610c4857600080fd5b50565b600081359050610c5a81610c34565b92915050565b6000610c73610c6e84610bfe565b610adf565b90508083825260208201905060208402830185811115610c9657610c95610b26565b5b835b81811015610cbf5780610cab8882610c4b565b845260208401935050602081019050610c98565b5050509392505050565b600082601f830112610cde57610cdd610a69565b5b8135610cee848260208601610c60565b91505092915050565b600067ffffffffffffffff821115610d1257610d11610a7f565b5b602082029050919050565b6000610d30610d2b84610cf7565b610adf565b90508060208402830185811115610d4a57610d49610b26565b5b835b81811015610d735780610d5f8882610c4b565b845260208401935050602081019050610d4c565b5050509392505050565b600082601f830112610d9257610d91610a69565b5b6008610d9f848285610d1d565b91505092915050565b60008060008060008060006101c0888a031215610dc857610dc7610a5f565b5b600088013567ffffffffffffffff811115610de657610de5610a64565b5b610df28a828b01610bd0565b975050602088013567ffffffffffffffff811115610e1357610e12610a64565b5b610e1f8a828b01610cc9565b965050604088013567ffffffffffffffff811115610e4057610e3f610a64565b5b610e4c8a828b01610cc9565b9550506060610e5d8a828b01610c4b565b9450506080610e6e8a828b01610c4b565b93505060a0610e7f8a828b01610c4b565b92505060c0610e908a828b01610d7d565b91505092959891949750929550565b60008115159050919050565b610eb481610e9f565b82525050565b6000602082019050610ecf6000830184610eab565b92915050565b600080fd5b600067ffffffffffffffff821115610ef557610ef4610a7f565b5b610efe82610a6e565b9050602081019050919050565b82818337600083830152505050565b6000610f2d610f2884610eda565b610adf565b905082815260208101848484011115610f4957610f48610ed5565b5b610f54848285610f0b565b509392505050565b600082601f830112610f7157610f70610a69565b5b8135610f81848260208601610f1a565b91505092915050565b610f9381610a19565b8114610f9e57600080fd5b50565b600081359050610fb081610f8a565b92915050565b60008060008060808587031215610fd057610fcf610a5f565b5b6000610fde87828801610b52565b945050602085013567ffffffffffffffff811115610fff57610ffe610a64565b5b61100b87828801610f5c565b935050604061101c87828801610fa1565b925050606061102d87828801610c4b565b91505092959194509250565b600080fd5b60008083601f84011261105457611053610a69565b5b8235905067ffffffffffffffff81111561107157611070611039565b5b60208301915083600182028301111561108d5761108c610b26565b5b9250929050565b6000806000604084860312156110ad576110ac610a5f565b5b60006110bb86828701610b52565b935050602084013567ffffffffffffffff8111156110dc576110db610a64565b5b6110e88682870161103e565b92509250509250925092565b600082825260208201905092915050565b7f546f6f206d616e7920636c61696d730000000000000000000000000000000000600082015250565b600061113b600f836110f4565b915061114682611105565b602082019050919050565b6000602082019050818103600083015261116a8161112e565b9050919050565b7f436c61696d206b65797320616e642076616c756573206c656e677468206d697360008201527f6d61746368000000000000000000000000000000000000000000000000000000602082015250565b60006111cd6025836110f4565b91506111d882611171565b604082019050919050565b600060208201905081810360008301526111fc816111c0565b9050919050565b7f436c61696d206b65797320616e6420636f6d6d69746d656e7473206c656e677460008201527f68206d69736d6174636800000000000000000000000000000000000000000000602082015250565b600061125f602a836110f4565b915061126a82611203565b604082019050919050565b6000602082019050818103600083015261128e81611252565b9050919050565b7f4e487b7100000000000000000000000000000000000000000000000000000000600052603260045260246000fd5b7f496e76616c6964206f72206578706972656420636c61696d436f6d6d69746d6560008201527f6e74000000000000000000000000000000000000000000000000000000000000602082015250565b60006113206022836110f4565b915061132b826112c4565b604082019050919050565b6000602082019050818103600083015261134f81611313565b9050919050565b7f4e487b7100000000000000000000000000000000000000000000000000000000600052601160045260246000fd5b600061139082610c2a565b91507fffffffffffffffffffffffffffffffffffffffffffffffffffffffffffffffff82036113c2576113c1611356565b5b600182019050919050565b600060029050919050565b600081905092915050565b6000819050919050565b6113f681610c2a565b82525050565b600061140883836113ed565b60208301905092915050565b6000602082019050919050565b61142a816113cd565b61143481846113d8565b925061143f826113e3565b8060005b8381101561147057815161145787826113fc565b965061146283611414565b925050600181019050611443565b505050505050565b600060029050919050565b600081905092915050565b6000819050919050565b600081905092915050565b6114ac816113cd565b6114b68184611498565b92506114c1826113e3565b8060005b838110156114f25781516114d987826113fc565b96506114e483611414565b9250506001810190506114c5565b505050505050565b600061150683836114a3565b60408301905092915050565b6000602082019050919050565b61152881611478565b6115328184611483565b925061153d8261148e565b8060005b8381101561156e57815161155587826114fa565b965061156083611512565b925050600181019050611541565b505050505050565b600060129050919050565b600081905092915050565b6000819050919050565b6000602082019050919050565b6115ac81611576565b6115b68184611581565b92506115c18261158c565b8060005b838110156115f25781516115d987826113fc565b96506115e483611596565b9250506001810190506115c5565b505050505050565b6000610340820190506116106000830187611421565b61161d604083018661151f565b61162a60c0830185611421565b6116386101008301846115a3565b95945050505050565b61164a81610e9f565b811461165557600080fd5b50565b60008151905061166781611641565b92915050565b60006020828403121561168357611682610a5f565b5b600061169184828501611658565b91505092915050565b600081519050919050565b7f4e487b7100000000000000000000000000000000000000000000000000000000600052602260045260246000fd5b600060028204905060018216806116ec57607f821691505b6020821081036116ff576116fe6116a5565b5b50919050565b60008190508160005260206000209050919050565b60006020601f8301049050919050565b600082821b905092915050565b6000600883026117677fffffffffffffffffffffffffffffffffffffffffffffffffffffffffffffffff8261172a565b611771868361172a565b95508019841693508086168417925050509392505050565b6000819050919050565b60006117ae6117a96117a484610c2a565b611789565b610c2a565b9050919050565b6000819050919050565b6117c883611793565b6117dc6117d4826117b5565b848454611737565b825550505050565b600090565b6117f16117e4565b6117fc8184846117bf565b505050565b5b81811015611820576118156000826117e9565b600181019050611802565b5050565b601f8211156118655761183681611705565b61183f8461171a565b8101602085101561184e578190505b61186261185a8561171a565b830182611801565b50505b505050565b600082821c905092915050565b60006118886000198460080261186a565b1980831691505092915050565b60006118a18383611877565b9150826002028217905092915050565b6118ba8261169a565b67ffffffffffffffff8111156118d3576118d2610a7f565b5b6118dd82546116d4565b6118e8828285611824565b600060209050601f83116001811461191b5760008415611909578287015190505b6119138582611895565b86555061197b565b601f19841661192986611705565b60005b828110156119515784890151825560018201915060208501945060208101905061192c565b8683101561196e578489015161196a601f891682611877565b8355505b6001600288020188555050505b505050505050565b600082825260208201905092915050565b60006119a08385611983565b93506119ad838584610f0b565b6119b683610a6e565b840190509392505050565b600060208201905081810360008301526119dc818486611994565b90509392505050565b6000815190506119f481610c34565b92915050565b6000611a0d611a0884610bfe565b610adf565b90508083825260208201905060208402830185811115611a3057611a2f610b26565b5b835b81811015611a595780611a4588826119e5565b845260208401935050602081019050611a32565b5050509392505050565b600082601f830112611a7857611a77610a69565b5b8151611a888482602086016119fa565b91505092915050565b60008060408385031215611aa857611aa7610a5f565b5b6000611ab6858286016119e5565b925050602083015167ffffffffffffffff811115611ad757611ad6610a64565b5b611ae385828601611a63565b9150509250929050565b7f4e756c6c696669657220616c7265616479207573656400000000000000000000600082015250565b6000611b236016836110f4565b9150611b2e82611aed565b602082019050919050565b60006020820190508181036000830152611b5281611b16565b9050919050565b6000611b6482610c2a565b9150611b6f83610c2a565b9250828201905080821115611b8757611b86611356565b5b9291505056fea264697066735822122015b9632cd5d22c574e003e8c5efeccc40405275ea4bae9633d9b501d6571a87d64736f6c63430008130033",
  "linkReferences": {},
  "deployedLinkReferences": {}
}